:020000040800F2
:1000000000800020610A0008E9090008EF090008E3
:10001000F5090008FB090008010A000800000000BB
:10002000000000000000000000000000070A0008B7
:10003000150A000800000000230A0008310A000821
:10004000B10A0008B10A0008B10A0008B10A0008A4
:10005000B10A0008B10A0008B10A0008B10A000894
:10006000B10A0008B10A0008B10A0008B10A000884
:10007000B10A0008B10A0008B10A0008B10A000874
:10008000B10A0008B10A0008B10A00080000000027
:10009000000000000000000000000000B10A00089D
:1000A000B10A0008B10A0008B10A0008B10A000844
:1000B000000000000000000000000000B10A00087D
:1000C000B10A0008B10A0008B10A0008B10A000824
:1000D000B10A0008B10A0008B10A000800000000D7
:1000E000B10A0008B10A000800000000000000008A
:1000F000000000000000000000000000B10A00083D
:100100000000000000000000B10A0008000000002C
:100110000000000000000000B10A0008000000001C
:10012000B10A0008B10A0008B10A0008B10A0008C3
:10013000B10A0008000000000000000000000000FC
:1001400000000000000000000000000000000000AF
:10015000B10A0008B10A0008B10A0008B10A000893
:10016000000000000000000000000000000000008F
:10017000000000000000000000000000000000007F
:10018000B10A0008B10A00080000000000000000E9
:1001900000000000B10A000800000000000000009C
:1001A000000000000000000000000000000000004F
:1001B000000000000000000000000000B10A00087C
:0801C000B10A0008B10A0008B1
:1001C80010B5054C237833B9044B13B10448AFF389
:1001D80000800123237010BD1000002000000000E3
:1001E800001A000808B5034B1BB103490348AFF3D5
:1001F800008008BD0000000014000020001A00085C
:1002080053B94AB9002908BF00281CBF4FF0FF3175
:100218004FF0FF3000F070B9ADF1080C6DE904CE75
:1002280000F006F8DDF804E0DDE9022304B07047C9
:100238002DE9F047089E0D4604460F46002B4AD18B
:100248008A42944665D9B2FA82F343B102FA03FCB2
:10025800C3F120029F4020FA02F217439C404FEA64
:100268001C4E1FFA8CF5B7FBFEF1220C0EFB117722
:1002780042EA074201FB05F090420AD91CEB020250
:1002880001F1FF3780F01C81904240F21981023958
:100298006244121AA4B2B2FBFEF00EFB102244EA2A
:1002A800024400FB05F5A5420AD91CEB040400F141
:1002B800FF3280F00781A54240F20481644402388D
:1002C80040EA0140641B00211EB1DC400023C6E95E
:1002D8000043BDE8F0878B4208D9002E00F0ED807E
:1002E8000021C6E900050846BDE8F087B3FA83F1A6
:1002F800002949D1AB4202D3824200F2F880841A25
:1003080065EB030201201746002EE2D0C6E900473C
:10031800DFE702B9FFDEB2FA82F3002B40F09080EB
:100328008A1A4FEA1C471FFA8CFE0121B2FBF7F527
:1003380007FB1520220C42EA00420EFB05F0904212
:1003480008D91CEB020205F1FF3802D2904200F2F4
:10035800CB804546121AA4B2B2FBF7F007FB102275
:1003680044EA02440EFB00FEA64508D91CEB04042F
:1003780000F1FF3202D2A64500F2BB801046A4EB82
:100388000E0440EA05409FE7C1F120078B4022FA9E
:1003980007FC4CEA030C05FA01F420FA07F3FD40C8
:1003A8004FEA1C492343B5FBF9F81FFA8CFE09FBF9
:1003B80018551C0C44EA054408FB0EF5A54202FA40
:1003C80001F200FA01F00BD91CEB040408F1FF3A22
:1003D80080F08880A54240F28580A8F10208644434
:1003E800641B9DB2B4FBF9F309FB134445EA0444CA
:1003F80003FB0EFEA64508D91CEB040403F1FF35E8
:100408006CD2A6456AD9023B644443EA0843A3FB7D
:100418000295A4EB0E04AC42C846AE4656D353D060
:1004280056B1B0EB080264EB0E0404FA07F7CA40B1
:10043800CC401743C6E9007418460021BDE8F08790
:10044800C3F1200102FA03FC20FA01F225FA01F1B6
:100458009D402A434FEA1C471FFA8CFEB1FBF7F078
:1004680007FB1015110C41EA054100FB0EF58D4202
:1004780004FA03F408D91CEB010100F1FF382FD26C
:100488008D422DD902386144491B92B2B1FBF7F570
:1004980007FB151142EA014205FB0EF1914208D90A
:1004A8001CEB020205F1FF3816D2914214D9023D25
:1004B8006244521A45EA004138E73146304608E7B7
:1004C8003946E6E61046FBE64845A9D2B9EB0208EC
:1004D80065EB0C0E013BA3E74546EAE72B4694E79C
:1004E8004046D1E7D0467BE7023D624432E7084602
:1004F8000AE76444023842E7704700BF80B582B01B
:1005080000AF03460A46FB711346BB71BB79002B4B
:1005180002D0012B07D00DE000224FF400710E48E5
:1005280000F0B4FD06E001224FF400710A4800F023
:10053800ADFD00BFFB791B09DBB2184600F00EF8D1
:10054800FB7903F00F03DBB2184600F007F800BF91
:100558000837BD4680BD00BF0000024080B582B0AC
:1005680000AF0346FB71FB7903F00103002B05D1B3
:1005780000224021274800F089FD04E001224021A3
:10058800244800F083FDFB7903F00203002B05D11A
:1005980000228021204800F079FD04E0012280211A
:1005A8001D4800F073FDFB7903F00403002B05D10F
:1005B80000224021184800F069FD04E00122402192
:1005C800154800F063FDFB7903F00803002B05D103
:1005D80000222021104800F059FD04E001222021CA
:1005E8000D4800F053FD002280210C4800F04EFD1C
:1005F80001228021094800F049FD00228021074896
:1006080000F044FD012000F0C3FA00BF0837BD46E2
:1006180080BD00BF00040240000002400008024004
:1006280080B582B000AF0346FB71FB790121184603
:10063800FFF764FF00BF0837BD4680BD80B582B0B4
:1006480000AF0346FB71FB7900211846FFF756FF00
:1006580000BF0837BD4680BD80B500AF0F2000F051
:1006680097FA0320FFF77AFF052000F091FA03209C
:10067800FFF774FF642000F08BFA0320FFF76EFF8A
:100688000220FFF76BFF2820FFF7D8FF022000F0B9
:100698007FFA0B4B07221A70094B1B7843F00803AB
:1006A800DBB21846FFF7CAFF022000F071FA0120FA
:1006B800FFF7C4FF022000F06BFA00BF80BD00BF47
:1006C8002C00002080B582B000AF03460A46FB71BB
:1006D8001346BB71FB79013B094AD25CBB791344D1
:1006E800DBB2013BDBB25BB263F07F035BB2DBB230
:1006F8001846FFF7A3FF00BF0837BD4680BD00BFFF
:100708000000002080B500AF094B1B7823F00103DF
:10071800DAB2074B1A70064B1B7843F00803DBB2BA
:100728001846FFF78BFF022000F032FA00BF80BDA9
:100738002C00002080B500AF094B1B7823F0020382
:10074800DAB2074B1A70064B1B7843F00803DBB28A
:100758001846FFF773FF022000F01AFA00BF80BDA9
:100768002C00002080B582B000AF03463A60FB71D0
:100778000B46BB71BA79FB7911461846FFF7A2FF01
:1007880007E03B681B781846FFF74AFF3B680133D0
:100798003B603B681B78002BF3D100BF00BF0837D4
:1007A800BD4680BD80B500AF00F080F900F010F8BC
:1007B80000F06CF8FFF750FFFFF7BCFFFFF7A2FF50
:1007C800024A01210220FFF7CDFFFEE7181A0008B0
:1007D80080B594B000AF07F11C03342200211846FD
:1007E80001F0DEF807F1080300221A605A609A60E7
:1007F800DA601A6100237B60224B1B6C214A43F0AC
:10080800805313641F4B1B6C03F080537B607B6821
:1008180000233B601C4B1B681B4A43F44043136096
:10082800194B1B6803F440433B603B680223FB61A0
:100838000123BB621023FB6200237B6307F11C03C7
:10084800184600F029FE0346002B01D000F09AF864
:100858000F23BB600023FB6000233B614FF48053F0
:100868007B610023BB6107F108030021184600F0F3
:1008780027FC0346002B01D000F084F800BF503756
:10088800BD4680BD003802400070004080B588B089
:1008980000AF07F10C0300221A605A609A60DA6010
:1008A8001A610023BB60334B1B6B324A43F00103D0
:1008B8001363304B1B6B03F00103BB60BB68002361
:1008C8007B602C4B1B6B2B4A43F004031363294BAF
:1008D8001B6B03F004037B607B6800233B60254BA4
:1008E8001B6B244A43F002031363224B1B6B03F078
:1008F80002033B603B6800224FF438711E4800F049
:10090800C5FB002280211D4800F0C0FB00224021C9
:100918001B4800F0BBFB4FF43873FB6001233B61BD
:1009280000237B610023BB6107F10C0319461248C1
:1009380000F038FA8023FB6001233B6100237B61D0
:100948000023BB6107F10C0319460C4800F02AFA92
:100958004023FB6001233B6100237B610023BB61D3
:1009680007F10C031946064800F01CFA00BF2037AF
:10097800BD4680BD00380240000002400008024029
:100988000004024080B400AF72B600BFFEE700006A
:1009980080B582B000AF00237B60104B5B6C0F4AC0
:1009A80043F4804353640D4B5B6C03F480437B60DA
:1009B8007B6800233B60094B1B6C084A43F080535B
:1009C8001364064B1B6C03F080533B603B680720A5
:1009D80000F0B4F900BF0837BD4680BD00380240BA
:1009E80080B400AFFEE780B400AFFEE780B400AF8C
:1009F800FEE780B400AFFEE780B400AFFEE780B446
:100A080000AF00BFBD465DF8047B704780B400AFFF
:100A180000BFBD465DF8047B704780B400AF00BFDF
:100A2800BD465DF8047B704780B500AF00F090F8D4
:100A380000BF80BD80B400AF064BD3F88830054AAC
:100A480043F47003C2F8883000BFBD465DF8047BEC
:100A5800704700BF00ED00E0DFF834D00D480E49C4
:100A68000E4A002302E0D458C4500433C4188C4200
:100A7800F9D30B4A0B4C002301E013600432A24265
:100A8800FBD3FFF7D7FF00F093FFFFF78BFE70470C
:100A9800008000200000002010000020481A0008F4
:100AA8001000002034000020FEE7000080B500AFF1
:100AB8000E4B1B680D4A43F4007313600B4B1B6805
:100AC8000A4A43F480631360084B1B68074A43F4DF
:100AD80080731360032000F031F9002000F008F85B
:100AE800FFF756FF0023184680BD00BF003C0240B8
:100AF80080B582B000AF7860124B1A68124B1B7831
:100B080019464FF47A73B3FBF1F3B2FBF3F31846CB
:100B180000F03BF90346002B01D001230EE07B686F
:100B28000F2B0AD8002279684FF0FF3000F011F936
:100B3800064A7B681360002300E001231846083743
:100B4800BD4680BD040000200C00002008000020E5
:100B580080B400AF064B1B781A46064B1B6813443B
:100B6800044A136000BFBD465DF8047B704700BFB0
:100B78000C0000203000002080B400AF034B1B683D
:100B88001846BD465DF8047B704700BF3000002062
:100B980080B584B000AF7860FFF7EEFFB8607B687F
:100BA800FB60FB68B3F1FF3F05D00A4B1B781A4680
:100BB800FB681344FB6000BFFFF7DEFF0246BB681B
:100BC800D31AFA689A42F7D800BF00BF1037BD465B
:100BD80080BD00BF0C00002080B485B000AF7860F5
:100BE8007B6803F00703FB600C4BDB68BB60BA68EB
:100BF8004FF6FF031340BB60FB681A02BB68134340
:100C080043F0BF6343F40033BB60044ABB68D3605E
:100C180000BF1437BD465DF8047B704700ED00E067
:100C280080B400AF044BDB681B0A03F007031846C7
:100C3800BD465DF8047B704700ED00E080B483B0EA
:100C480000AF03463960FB7197F90730002B0ADBC8
:100C58003B68DAB20C4997F907301201D2B20B445B
:100C680083F800230AE03B68DAB20849FB7903F00D
:100C78000F03043B1201D2B20B441A7600BF0C37A3
:100C8800BD465DF8047B704700E100E000ED00E040
:100C980080B489B000AFF860B9607A60FB6803F08F
:100CA8000703FB61FB69C3F10703042B28BF042377
:100CB800BB61FB690433062B02D9FB69033B00E0E7
:100CC80000237B614FF0FF32BB6902FA03F3DA437A
:100CD800BB681A407B699A404FF0FF317B6901FA83
:100CE80003F3D9437B680B40134318462437BD46AA
:100CF8005DF8047B7047000080B582B000AF786073
:100D08007B68013BB3F1807F01D301230FE00A4ADE
:100D18007B68013B53600F214FF0FF30FFF78EFFD8
:100D2800054B00229A60044B07221A6000231846DC
:100D38000837BD4680BD00BF10E000E080B582B036
:100D480000AF78607868FFF747FF00BF0837BD46F7
:100D580080BD80B586B000AF0346B9607A60FB738A
:100D680000237B61FFF75CFF78617A68B96878696E
:100D7800FFF78EFF024697F90F3011461846FFF726
:100D88005DFF00BF1837BD4680BD80B582B000AF9B
:100D980078607868FFF7B0FF034618460837BD4605
:100DA80080BD000080B489B000AF7860396000234E
:100DB8007B6100233B610023BB610023FB614DE1A4
:100DC8000122FB6902FA03F37B613B681B687A69BD
:100DD80013403B613A697B699A4240F03C813B6829
:100DE8005B6803F00303012B05D03B685B6803F0E5
:100DF8000303022B30D17B689B68BB61FB695B00F6
:100E0800032202FA03F3DB43BA691340BB613B6870
:100E1800DA68FB695B0002FA03F3BA691343BB6142
:100E28007B68BA699A607B685B68BB610122FB6971
:100E380002FA03F3DB43BA691340BB613B685B68A2
:100E48001B0903F00102FB6902FA03F3BA691343B1
:100E5800BB617B68BA695A603B685B6803F003034F
:100E6800032B17D07B68DB68BB61FB695B0003223F
:100E780002FA03F3DB43BA691340BB613B689A6823
:100E8800FB695B0002FA03F3BA691343BB617B6831
:100E9800BA69DA603B685B6803F00303022B23D16D
:100EA800FB69DA087B68083253F82230BB61FB69BA
:100EB80003F007039B000F2202FA03F3DB43BA692E
:100EC8001340BB613B681A69FB6903F007039B0089
:100ED80002FA03F3BA691343BB61FB69DA087B685A
:100EE8000832B96943F822107B681B68BB61FB694B
:100EF8005B00032202FA03F3DB43BA691340BB61C8
:100F08003B685B6803F00302FB695B0002FA03F3CA
:100F1800BA691343BB617B68BA691A603B685B684E
:100F280003F44033002B00F096800023FB60514B04
:100F38005B6C504A43F4804353644E4B5B6C03F440
:100F48008043FB60FB684C4AFB699B08023352F8FC
:100F58002330BB61FB6903F003039B000F2202FAF5
:100F680003F3DB43BA691340BB617B68434A93428E
:100F78000DD07B68424A934207D07B68414A93422E
:100F880001D1022304E0072302E0012300E000234B
:100F9800FA6902F0030292009340BA691343BB61F5
:100FA8003549FB699B080233BA6941F82320364B5F
:100FB8009B68BB613B69DB43BA691340BB613B6813
:100FC8005B6803F48013002B03D0BA693B691343B1
:100FD800BB612D4ABB6993602B4BDB68BB613B69E6
:100FE800DB43BA691340BB613B685B6803F40013D9
:100FF800002B03D0BA693B691343BB61224ABB6922
:10100800D360214B5B68BB613B69DB43BA69134022
:10101800BB613B685B6803F40033002B03D0BA69FB
:101028003B691343BB61184ABB695360164B1B6885
:10103800BB613B69DB43BA691340BB613B685B68D2
:1010480003F48033002B03D0BA693B691343BB61B7
:101058000D4ABB691360FB690133FB61FB690F2B08
:101068007FF6AEAE00BF00BF2437BD465DF8047BF7
:10107800704700BF003802400038014000000240BD
:101088000004024000080240003C014080B483B0E4
:1010980000AF78600B467B8013467B707B78002B13
:1010A80003D07A887B689A6103E07B881A047B689E
:1010B8009A6100BF0C37BD465DF8047B704700009D
:1010C80080B584B000AF786039607B68002B01D1AF
:1010D8000123CCE0684B1B6803F007033A689A4287
:1010E8000CD9654B3A68D2B21A70634B1B6803F08F
:1010F80007033A689A4201D00123B8E07B681B686D
:1011080003F00203002B20D07B681B6803F0040364
:10111800002B05D0594B9B68584A43F4E053936021
:101128007B681B6803F00803002B05D0534B9B68B2
:10113800524A43F460439360504B9B6823F0F0029B
:101148007B689B684D4913438B607B681B6803F081
:101158000103002B44D07B685B68012B07D1474B08
:101168001B6803F40033002B19D101237FE07B684F
:101178005B68022B03D07B685B68032B07D13F4B6E
:101188001B6803F00073002B09D101236FE03B4B70
:101198001B6803F00203002B01D1012367E0374BE2
:1011A8009B6823F003027B685B68344913438B60B8
:1011B800FFF7E2FCF8600AE0FFF7DEFC0246FB6896
:1011C800D31A41F28832934201D903234FE02B4BC3
:1011D8009B6803F00C027B685B689B009A42EBD12A
:1011E800254B1B6803F007033A689A420CD2224B3E
:1011F8003A68D2B21A70204B1B6803F007033A68AA
:101208009A4201D0012332E07B681B6803F0040393
:10121800002B08D0194B9B6823F4E0527B68DB68ED
:10122800164913438B607B681B6803F00803002B87
:1012380009D0124B9B6823F460427B681B69DB0072
:101248000E4913438B6000F021F802460B4B9B6854
:101258001B0903F00F030A49CB5C22FA03F3094A7E
:101268001360094B1B681846FFF742FC0023184619
:101278001037BD4680BD00BF003C02400038024028
:10128800281A000804000020080000202DE9B04FAB
:1012980094B000AF00237B640023FB6400233B640D
:1012A8000023BB64794B9B6803F00C03082B0DD01B
:1012B800082B00F2E180002B02D0042B03D0DBE0E6
:1012C800734BBB64DBE0734BBB64D8E06F4B5B686C
:1012D80003F03F037B646D4B5B6803F48003002BD2
:1012E80063D06A4B5B689B090022BB63FA63BB6BE4
:1012F800C3F308033B6300237B63D7E90C4522460D
:101308002B464FF000004FF00001590141EAD2612D
:10131800500102460B462146511A3961294663EBB2
:1013280001037B614FF000024FF00003D7E904ABE3
:1013380059468B01514643EA916351468A01514609
:10134800B2EB0108594663EB01094FF000024FF078
:1013580000034FEAC90343EA58734FEAC8029046AC
:101368009946234618EB0303BB602B4649EB03035E
:10137800FB604FF000024FF00003D7E90245294611
:101388004B02214643EAD15321464A0210461946E8
:101398007B6C0022BB62FA62D7E90A23FEF730FFB2
:1013A80002460B461346FB6458E0384B5B689B09C2
:1013B800002218461146C0F308033B6200237B62F3
:1013C800D7E9088942464B464FF000004FF000012C
:1013D800590141EAD261500102460B464146B2EB3F
:1013E800010A494663EB010B4FF000024FF000037E
:1013F8004FEA8B1343EA9A634FEA8A12B2EB0A0464
:1014080063EB0B054FF000024FF00003EB0043EADB
:101418005473E20014461D464346E3183B604B46AE
:1014280045EB03037B604FF000024FF00003D7E960
:10143800004529468B02214643EA915321468A02F8
:10144800104619467B6C0022BB61FA61D7E9062376
:10145800FEF7D6FE02460B461346FB640B4B5B6851
:101468001B0C03F0030301335B003B64FA6C3B6C19
:10147800B2FBF3F3BB6402E0054BBB6400BFBB6C7B
:1014880018465037BD46BDE8B08F00BF003802404F
:101498000024F40000127A0080B586B000AF7860AE
:1014A8007B68002B01D1012373E27B681B6803F082
:1014B8000103002B75D0884B9B6803F00C03042BA9
:1014C8000CD0854B9B6803F00C03082B12D1824B80
:1014D8005B6803F48003B3F5800F0BD17E4B1B6868
:1014E80003F40033002B5BD07B685B68002B57D17B
:1014F80001234EE27B685B68B3F5803F06D1764BEB
:101508001B68754A43F4803313601DE07B685B6891
:10151800B3F5A02F0CD1704B1B686F4A43F480239E
:1015280013606D4B1B686C4A43F4803313600BE007
:10153800694B1B68684A23F480331360664B1B6849
:10154800654A23F4802313607B685B68002B13D003
:10155800FFF712FB386108E0FFF70EFB02463B6914
:10156800D31A642B01D9032313E25B4B1B6803F4E2
:101578000033002BF0D014E0FFF7FEFA386108E0E2
:10158800FFF7FAFA02463B69D31A642B01D9032301
:10159800FFE1514B1B6803F40033002BF0D100E04E
:1015A80000BF7B681B6803F00203002B63D04A4B23
:1015B8009B6803F00C03002B0BD0474B9B6803F090
:1015C8000C03082B1CD1444B5B6803F48003002BED
:1015D80016D1414B1B6803F00203002B05D07B6832
:1015E800DB68012B01D00123D3E13B4B1B6823F0BF
:1015F800F8027B681B69DB00374913430B603AE04C
:101608007B68DB68002B20D0344B01221A60FFF77F
:10161800B3FA386108E0FFF7AFFA02463B69D31A1C
:10162800022B01D90323B4E12B4B1B6803F00203FF
:10163800002BF0D0284B1B6823F0F8027B681B694D
:10164800DB00254913430B6015E0244B00221A6088
:10165800FFF792FA386108E0FFF78EFA02463B6915
:10166800D31A022B01D9032393E11B4B1B6803F008
:101678000203002BF0D17B681B6803F00803002BE2
:1016880036D07B685B69002B16D0154B01221A6097
:10169800FFF772FA386108E0FFF76EFA02463B6915
:1016A800D31A022B01D9032373E10B4B5B6F03F0B1
:1016B8000203002BF0D01BE0094B00221A60FFF751
:1016C8005BFA38610EE0FFF757FA02463B69D31A16
:1016D800022B07D903235CE100380240000047428F
:1016E800800E47428A4B5B6F03F00203002BEAD15E
:1016F8007B681B6803F00403002B00F0978000232D
:10170800FB75834B1B6C03F08053002B0FD1002318
:10171800BB607F4B1B6C7E4A43F0805313647C4B49
:101728001B6C03F08053BB60BB680123FB75794BCE
:101738001B6803F48073002B18D1764B1B68754A1D
:1017480043F480731360FFF717FA386108E0FFF776
:1017580013FA02463B69D31A022B01D9032318E175
:101768006C4B1B6803F48073002BF0D07B689B687C
:10177800012B06D1664B1B6F654A43F001031367C3
:101788001CE07B689B68052B0CD1614B1B6F604A82
:1017980043F0040313675E4B1B6F5D4A43F001037C
:1017A80013670BE05A4B1B6F594A23F00103136769
:1017B800574B1B6F564A23F0040313677B689B68DB
:1017C800002B15D0FFF7D8F938610AE0FFF7D4F9F4
:1017D80002463B69D31A41F28832934201D9032366
:1017E800D7E04B4B1B6F03F00203002BEED014E045
:1017F800FFF7C2F938610AE0FFF7BEF902463B6914
:10180800D31A41F28832934201D90323C1E0404BF5
:101818001B6F03F00203002BEED1FB7D012B05D1DA
:101828003B4B1B6C3A4A23F0805313647B689B69DB
:10183800002B00F0AD80364B9B6803F00C03082B9F
:1018480060D07B689B69022B45D1334B00221A601C
:10185800FFF792F9386108E0FFF78EF902463B6915
:10186800D31A022B01D9032393E0294B1B6803F0F9
:101878000073002BF0D17B68DA697B681B6A1A4316
:101888007B685B6A9B011A437B689B6A5B08013B28
:101898001B041A437B68DB6A1B061A437B681B6BB5
:1018A8001B071B4913434B601B4B01221A60FFF7B0
:1018B80063F9386108E0FFF75FF902463B69D31A1C
:1018C800022B01D9032364E0114B1B6803F000735A
:1018D800002BF0D05CE0104B00221A60FFF74CF9A7
:1018E800386108E0FFF748F902463B69D31A022B32
:1018F80001D903234DE0064B1B6803F00073002B4E
:10190800F0D145E07B689B69012B07D1012340E0BA
:101918000038024000700040600047421F4B5B687F
:10192800FB607B689B69012B30D0FB6803F4800265
:101938007B68DB699A4229D1FB6803F03F027B6828
:101948001B6A9A4222D1FA6847F6C07313407A6834
:10195800526A9201934219D1FB6803F440327B68C2
:101968009B6A5B08013B1B049A420FD1FB6803F09A
:1019780070627B68DB6A1B069A4207D1FB6803F03A
:10198800E0427B681B6B1B079A4201D0012300E0F1
:10199800002318461837BD4680BD00BF00380240F6
:1019A80002440346934200D1704703F8011BF9E74C
:1019B80070B50D4D0D4C641BA4100026A64209D12C
:1019C8000B4D0C4C00F018F8641BA4100026A6421E
:1019D80005D170BD55F8043B98470136EEE755F838
:1019E800043B98470136F2E7401A0008401A0008FD
:1019F800401A0008441A0008F8B500BFF8BC08BC33
:101A08009E467047F8B500BFF8BC08BC9E467047B4
:101A180053616C75646F732053544D33320000006A
:101A28000000000000000000010203040607080986
:081A380000E8FF7F010000003F
:041A4000ED010008AC
:041A4400C9010008CC
:101A4800004014540024F4001000000001000000BD
:0400000508000A6184
:00000001FF
